{
  "transactions": [
    {
      "hash": "0xdea5e4963859eb210ed736f1daff403660e68ef6daaad2a2ea030fdf483dc772",
      "transactionType": "CALL",
      "contractName": null,
      "contractAddress": "0x779877a7b0d9e8603169ddbd7836e478b4624789",
      "function": "transferAndCall(address,uint256,bytes)",
      "arguments": [
        "0x9DdfaCa8183c41ad55329BdeeD9F6A8d53168B1B",
        "3000000000000000000",
        "0xe66056f9a037f9464fcb29a4c2c3afe0e59fe5ee134f253ae4fd576d1f7f16f8"
      ],
      "transaction": {
        "from": "0x1b99e303b9a1d8279f45bb6e510863fb669cdf65",
        "to": "0x779877a7b0d9e8603169ddbd7836e478b4624789",
        "gas": "0x1c1ff",
        "value": "0x0",
        "input": "0x4000aea00000000000000000000000009ddfaca8183c41ad55329bdeed9f6a8d53168b1b00000000000000000000000000000000000000000000000029a2241af62c000000000000000000000000000000000000000000000000000000000000000000600000000000000000000000000000000000000000000000000000000000000020e66056f9a037f9464fcb29a4c2c3afe0e59fe5ee134f253ae4fd576d1f7f16f8",
        "nonce": "0xc",
        "chainId": "0xaa36a7"
      },
      "additionalContracts": [],
      "isFixedGasLimit": false
    }
  ],
  "receipts": [
    {
      "status": "0x1",
      "cumulativeGasUsed": "0xb2e1f0",
      "logs": [
        {
          "address": "0x779877a7b0d9e8603169ddbd7836e478b4624789",
          "topics": [
            "0xddf252ad1be2c89b69c2b068fc378daa952ba7f163c4a11628f55a4df523b3ef",
            "0x0000000000000000000000001b99e303b9a1d8279f45bb6e510863fb669cdf65",
            "0x0000000000000000000000009ddfaca8183c41ad55329bdeed9f6a8d53168b1b"
          ],
          "data": "0x00000000000000000000000000000000000000000000000029a2241af62c0000",
          "blockHash": "0x8b06d9a851f99ce37b53b6c5c8e9854c7f1fd9541a5521f22a37c32a86ebdabe",
          "blockNumber": "0x74abf4",
          "transactionHash": "0xdea5e4963859eb210ed736f1daff403660e68ef6daaad2a2ea030fdf483dc772",
          "transactionIndex": "0x6b",
          "logIndex": "0xa3",
          "removed": false
        },
        {
          "address": "0x779877a7b0d9e8603169ddbd7836e478b4624789",
          "topics": [
            "0xe19260aff97b920c7df27010903aeb9c8d2be5d310a2c67824cf3f15396e4c16",
            "0x0000000000000000000000001b99e303b9a1d8279f45bb6e510863fb669cdf65",
            "0x0000000000000000000000009ddfaca8183c41ad55329bdeed9f6a8d53168b1b"
          ],
          "data": "0x00000000000000000000000000000000000000000000000029a2241af62c000000000000000000000000000000000000000000000000000000000000000000400000000000000000000000000000000000000000000000000000000000000020e66056f9a037f9464fcb29a4c2c3afe0e59fe5ee134f253ae4fd576d1f7f16f8",
          "blockHash": "0x8b06d9a851f99ce37b53b6c5c8e9854c7f1fd9541a5521f22a37c32a86ebdabe",
          "blockNumber": "0x74abf4",
          "transactionHash": "0xdea5e4963859eb210ed736f1daff403660e68ef6daaad2a2ea030fdf483dc772",
          "transactionIndex": "0x6b",
          "logIndex": "0xa4",
          "removed": false
        },
        {
          "address": "0x9ddfaca8183c41ad55329bdeed9f6a8d53168b1b",
          "topics": [
            "0x1ced9348ff549fceab2ac57cd3a9de38edaaab274b725ee82c23e8fc8c4eec7a",
            "0xe66056f9a037f9464fcb29a4c2c3afe0e59fe5ee134f253ae4fd576d1f7f16f8"
          ],
          "data": "0x000000000000000000000000000000000000000000000000000000000000000000000000000000000000000000000000000000000000000029a2241af62c0000",
          "blockHash": "0x8b06d9a851f99ce37b53b6c5c8e9854c7f1fd9541a5521f22a37c32a86ebdabe",
          "blockNumber": "0x74abf4",
          "transactionHash": "0xdea5e4963859eb210ed736f1daff403660e68ef6daaad2a2ea030fdf483dc772",
          "transactionIndex": "0x6b",
          "logIndex": "0xa5",
          "removed": false
        }
      ],
      "logsBloom": "0x00000004400000000000000000000000000000000020000000000000020000000000000000000000000000000000000000000000000000000000000000000400000000000000000000000008000000000000000000000000000020000020000008000000000000000000000000000000000000000000000000000010000040000000000000000000000000010000800000000020000000000000000000000000000000000000000000000000010000000000000004000000000004000000000000000002020000000000000000000000000800000000000100000000000000000010040000000000800000000000000000000000000000000000000000000000",
      "type": "0x2",
      "transactionHash": "0xdea5e4963859eb210ed736f1daff403660e68ef6daaad2a2ea030fdf483dc772",
      "transactionIndex": "0x6b",
      "blockHash": "0x8b06d9a851f99ce37b53b6c5c8e9854c7f1fd9541a5521f22a37c32a86ebdabe",
      "blockNumber": "0x74abf4",
      "gasUsed": "0x133b1",
      "effectiveGasPrice": "0x13a78c352a",
      "from": "0x1b99e303b9a1d8279f45bb6e510863fb669cdf65",
      "to": "0x779877a7b0d9e8603169ddbd7836e478b4624789",
      "contractAddress": null
    }
  ],
  "libraries": [],
  "pending": [],
  "returns": {},
  "timestamp": 1738775221,
  "chain": 11155111,
  "commit": "ee83648"
}